:020000040800F2
:1000000000500020251F0008D5140008DB1400084C
:10001000E1140008E7140008ED14000800000000D7
:10002000000000000000000000000000F3140008C1
:10003000FF140008000000000B1500081715000849
:100040006D1F00086D1F00086D1F00086D1F000860
:100050006D1F00086D1F00086D1F00086D1F000850
:100060006D1F00086D1F00086D1F00086D1F000840
:100070006D1F00086D1F00086D1F00086D1F000830
:100080006D1F00086D1F00086D1F00086D1F000820
:100090006D1F00086D1F00086D1F00086D1F000810
:1000A0006D1F00086D1F00086D1F00086D1F000800
:1000B00025150008391500086D1F00086D1F000880
:1000C0006D1F00086D1F00086D1F00086D1F0008E0
:1000D0006D1F00086D1F00084D1500086D1F0008FA
:1000E0006D1F00086D1F00086D1F00080000000054
:1000F0000000000000000000000000000000000000
:0C01000000000000000000005FF808F1A3
:10010C0010B5054C237833B9044B13B10448AFF345
:10011C0000800123237010BDD800002000000000D7
:10012C00FC53000808B5034B1BB103490348AFF35C
:10013C00008008BD00000000DC000020FC5300081B
:10014C00034613F8012B002AFBD1181A013870470B
:10015C0080B582B000AF78607B681B68084A934218
:10016C000AD1322301220749074803F0ADFE0122D0
:10017C000449054803F02BFF00BF0837BD4680BD7E
:10018C0000440040F40000202C05002080B59CB0F9
:10019C0000AF7860396007F10C003B687A6807495A
:1001AC0004F0ECFC03469AB207F10C0164230448FA
:1001BC0003F08AFE00BF7037BD4680BD14540008A2
:1001CC002C05002080B582B000AF78607868FFF70E
:1001DC00B7FF03469AB264237968034803F074FEB0
:1001EC0000BF0837BD4680BD2C05002080B59CB0F3
:1001FC0000AF7860396007F10C003B687A680749FA
:10020C0004F0BCFC03469AB207F10C0164230448C9
:10021C0003F05AFE00BF7037BD4680BD2C54000859
:10022C002C05002080B483B000AF7860094A7B684D
:10023C0052F82330012B06D1064A7B68002142F884
:10024C002310012300E0002318460C37BD4680BC68
:10025C00704700BFF800002080B483B000AF786016
:10026C00044A7B68012142F8231000BF0C37BD46BD
:10027C0080BC7047F800002080B582B000AF00232E
:10028C007B60A6E0574A7B6852F8232056497B686E
:10029C0041F82320554A7B6852F8232051497B684A
:1002AC0041F823207B68032B46D801A252F823F097
:1002BC00CD020008EB020008090300082703000820
:1002CC004B4A7B6832F8133019464A4802F0F0F971
:1002DC0003461946454A7B6842F823102DE0444AF0
:1002EC007B6832F813301946424802F0E1F90346B4
:1002FC0019463E4A7B6842F823101EE03C4A7B6854
:10030C0032F8133019463B4802F0D2F9034619462D
:10031C00364A7B6842F823100FE0354A7B6832F886
:10032C0013301946344802F0C3F9034619462F4AD4
:10033C007B6842F8231000E000BF2A4A7B6852F821
:10034C0023202A497B6851F823309A423ED1254A12
:10035C007B6852F8232024497B6851F823309A4259
:10036C0034D1214A7B6852F8232024497B6851F808
:10037C0023309A4216D01C4A7B6852F823201F491E
:10038C007B6841F823201D4A7B6852F82330002BF0
:10039C001CD11B4A7B68C82142F823107868FFF7F0
:1003AC005BFF13E0164A7B6852F823305A1E14493F
:1003BC007B6841F82320124A7B6852F82330002BCB
:1003CC0004D10E4A7B68012142F823107B6801336B
:1003DC007B607B68032B7FF755AF00BF00BF0837EE
:1003EC00BD4680BD18000020280000200800002019
:1003FC000000002000080140000C014038000020E3
:10040C004800002080B500AF164B1B68012B26D18D
:10041C001548FFF7D7FE154B1B68632B03DD134BF9
:10042C0000221A6004E0114B1B6814330F4A13604E
:10043C000F4B1B68002B05D00C4B1A680D4B1B681F
:10044C005A6303E00B4B1B6800225A63084B1B6872
:10045C00C3F10103064A13600A2000F071FE00BFCD
:10046C0080BD00BF680400205C5400080801002017
:10047C00200100209C04002080B400AF034B1B68BB
:10048C0000225A6300BFBD4680BC70479C0400200C
:10049C0080B500AF00224FF48061104802F01FF9C4
:1004AC00002208210E4802F01AF9002220210C48E3
:1004BC0002F015F900221021094802F010F900226F
:1004CC004FF48061064802F00AF900224FF4807163
:1004DC00024802F004F900BF80BD00BF00080140D3
:1004EC00000C014080B500AF00224FF4806105483C
:1004FC0002F0F5F800224FF48071034802F0EFF897
:10050C0000BF80BD000C01400008014080B500AF69
:10051C0001224FF48061054802F0E1F80022082125
:10052C00034802F0DCF800BF80BD00BF00080140AA
:10053C00000C014080B500AF00224FF480610548EB
:10054C0002F0CDF801220821034802F0C8F800BFE0
:10055C0080BD00BF00080140000C014080B500AF19
:10056C0001224FF48061054802F0B9F801220821FC
:10057C00034802F0B4F800BF80BD00BF0008014082
:10058C00000C014080B500AF01222021044802F08C
:10059C00A6F800221021024802F0A1F800BF80BD8D
:1005AC00000C014080B500AF00222021044802F06D
:1005BC0096F801221021024802F091F800BF80BD8C
:1005CC00000C014080B500AF01222021044802F04C
:1005DC0086F801221021024802F081F800BF80BD8C
:1005EC00000C014080B500AF01224FF4806105483A
:1005FC0002F075F800224FF48071034802F06FF896
:10060C0000BF80BD000C01400008014080B500AF68
:10061C0000224FF48061054802F061F801224FF48A
:10062C008071034802F05BF800BF80BD000C0140F4
:10063C000008014080B500AF4FF48071024802F011
:10064C0066F800BF80BD00BF0008014080B500AF58
:10065C0001F088FC00F03CF800F068F900F07AF842
:10066C0000F03AF900F0C2F8114802F0C7FC002182
:10067C00104802F06DFD01220F49104803F0A7FC51
:10068C00012200210E4800F0A9FA012200210D4898
:10069C0000F0A4FA012200210B4800F09FFA01227D
:1006AC0000210A4800F09AFA00F0E2FCFCE700BFD7
:1006BC00E40400209C040020F40000202C05002001
:1006CC00C511000885020008D9150008350A000874
:1006DC0080B590B000AF07F118032822002118460E
:1006EC0004F044FA3B1D00221A605A609A60DA60EA
:1006FC001A610223BB610123BB621023FB6202233C
:10070C007B630023BB634FF46013FB6307F1180397
:10071C00184602F015F80346002B01D000F07EF9C4
:10072C000F237B600223BB600023FB604FF4E0636C
:10073C003B6100237B613B1D0221184602F080FACD
:10074C000346002B01D000F069F900BF4037BD46CD
:10075C0080BD000080B586B000AF07F10803002211
:10076C001A605A609A60DA603B4600221A605A603E
:10077C001D4B4FF080421A601B4B40F2E7325A601F
:10078C00194B00229A60184B3F22DA60164B00225C
:10079C001A61154B00229A61134802F0DFFB0346E5
:1007AC00002B01D000F03AF94FF48053BB6007F1F5
:1007BC00080319460C4802F037FF0346002B01D002
:1007CC0000F02CF900233B6000237B603B4619466C
:1007DC00054803F0B9FA0346002B01D000F01EF9CE
:1007EC0000BF1837BD4680BDE404002080B58EB034
:1007FC0000AF07F1280300221A605A609A60DA6091
:10080C0007F1200300221A605A603B1D00221A6077
:10081C005A609A60DA601A615A619A612C4B2D4ABF
:10082C001A602B4B3F225A60294B00229A60284BAE
:10083C0040F2E732DA60264B00221A61244B002288
:10084C009A61234802F08AFB0346002B01D000F08A
:10085C00E5F84FF48053BB6207F1280319461C4896
:10086C0002F0E2FE0346002B01D000F0D7F8184846
:10087C0002F016FC0346002B01D000F0CFF8002349
:10088C003B6200237B6207F120031946104803F0FA
:10089C005BFA0346002B01D000F0C0F860237B60AC
:1008AC000023BB600023FB6000237B613B1D002207
:1008BC001946074802F0F6FD0346002B01D000F064
:1008CC00ADF8034800F07CFD00BF3837BD4680BD55
:1008DC009C0400200004004080B500AF114B124A6C
:1008EC001A60104B4FF416525A600E4B00229A604D
:1008FC000C4B0022DA600B4B00221A61094B0C22C4
:10090C005A61084B00229A61064B0022DA610548B5
:10091C0003F08AFA0346002B01D000F07FF800BFE9
:10092C0080BD00BF2C0500200044004080B586B07F
:10093C0000AF07F1080300221A605A609A60DA606F
:10094C002E4B9B692D4A43F0040393612B4B9B69FF
:10095C0003F004037B607B68284B9B69274A43F0B8
:10096C0008039361254B9B6903F008033B603B68CC
:10097C0000224FF48761224801F0B1FE00224FF4AF
:10098C00A061204801F0ABFE1323BB600023FB6089
:10099C0001233B6107F1080319461A4801F004FDD5
:1009AC000123BB600023FB6001233B6107F10803BB
:1009BC001946134801F0F8FC4FF48763BB60012320
:1009CC00FB6000233B6102237B6107F1080319469E
:1009DC000B4801F0E9FC4FF4A063BB600123FB6002
:1009EC0000233B6102237B6107F10803194605488C
:1009FC0001F0DAFC00BF1837BD4680BD0010024084
:100A0C00000C01400008014080B582B000AF786056
:100A1C0000F0BCF800BF0837BD4680BD80B400AF05
:100A2C0072B600BFFEE7000080B500AF514B1B78DB
:100A3C00042B00F2918001A252F823F05D0A000809
:100A4C00870A0008BB0A0008F50A0008290B0008F1
:100A5C00FFF748FD0020FFF7E5FB0346012B7FD194
:100A6C00454B01221A60454B1A78424B1A70444B85
:100A7C001B68184600F078FB72E0FFF7B3FDFFF738
:100A8C00FBFC404B1B68012B6CD13A4B00221A70BB
:100A9C00394B00221A60002000F066FB002000F0A9
:100AAC0077FB002000F04CFBFFF7E6FC5AE0FFF769
:100ABC0099FDFFF7E1FC334B1B68012B10D12D4B3B
:100ACC0000221A702C4B00221A60002000F04CFB04
:100ADC00002000F05DFB002000F032FBFFF7CCFCA7
:100AEC00012000F02DFB42E0FFF790FDFFF78AFCA0
:100AFC00244B1B68012B37D11E4B00221A701E4B46
:100B0C0000221A60002000F02FFB002000F040FBB8
:100B1C00002000F015FBFFF7AFFC25E01A4B1B681B
:100B2C00012B04D1FFF786FD192000F031FBFFF7F4
:100B3C0069FC144B1B68012B18D10E4B00221A7048
:100B4C000D4B00221A60002000F00EFB002000F07C
:100B5C001FFBFFF791FC09E0064B00221A7006E020
:100B6C0000BF04E000BF02E000BF00E000BF00BF18
:100B7C0080BD00BF0E0100201C0100200C010020D4
:100B8C0064000020700400207804002080B400AFC2
:100B9C00104B1B6801330F4A13600F4B1B68002B63
:100BAC0013D00D4B1B7B002B0FD10B4B5B68002B19
:100BBC0004D0094B5B68013B074A5360064B5B68EA
:100BCC00002B02D1044B01221A7300BFBD4680BC1E
:100BDC00704700BF500400202C01002090B589B054
:100BEC0000AFF860B9607A600023FB770023BB612B
:100BFC0000233B610023FB7733E1FA7FA1491346C5
:100C0C009B0013449B000B4404331B68BA691344C8
:100C1C00BB61BA69BB689A4240F2C180FA7F9949BC
:100C2C0013469B0013449B000B4404331A68BB69A6
:100C3C00D31ABA6813443B61FA7FB969BB68C91A05
:100C4C00904813469B0013449B00034404331960E3
:100C5C002723FB754CE0FB7D591EFA7D89480B461A
:100C6C009B000B449B0003441968864813469B0069
:100C7C0013449B0003441960FB7D591EFA7D814887
:100C8C000B469B000B449B000344083319687D48BA
:100C9C0013469B0013449B00034408331960FB7DEF
:100CAC00591EFA7D77480B469B000B449B0003446E
:100CBC0004331968734813469B0013449B00034488
:100CCC0004331960FB7D591EFA7D6E480B469B0060
:100CDC000B449B000344103319686A4813469B006D
:100CEC0013449B00034410331960FB7D013BFB75DF
:100CFC00FA7DFB7F9A42AED8FA7F624913469B007D
:100D0C0013449B000B44FA681A60FA7F5D49134642
:100D1C009B0013449B000B4404333A691A60FA7F1E
:100D2C00584913469B0013449B000B4408337A68C4
:100D3C001A60FA7F534913469B0013449B000B44E3
:100D4C0004331B68002B0AD1FA7F4E4913469B00D3
:100D5C0013449B000B440C3301221A7009E0FA7FF8
:100D6C00484913469B0013449B000B440C33002250
:100D7C001A70FC7F00F0A4F90246424923469B00FE
:100D8C0023449B000B4410331A60FA7F3D491346F1
:100D9C009B0013449B000B4410331B686EE0FA7FDE
:100DAC00384913469B0013449B000B441B68002BD3
:100DBC0054D1FA7F334913469B0013449B000B44D8
:100DCC00FA681A60FA7FB968BB69C91A2D481346CC
:100DDC009B0013449B00034404331960FA7F294998
:100DEC0013469B0013449B000B4408337A681A602B
:100DFC00FA7F244913469B0013449B000B44043395
:100E0C001B68002B0AD1FA7F1E4913469B00134422
:100E1C009B000B440C3301221A7009E0FA7F19492C
:100E2C0013469B0013449B000B440C3300221A7096
:100E3C00FC7F00F045F90246124923469B002344EF
:100E4C009B000B4410331A60FA7F0E4913469B002B
:100E5C0013449B000B4410331B680FE0FB7F0133E2
:100E6C00FB77FB7F272B7FF6C8AEFA7F054913462D
:100E7C009B0013449B000B4410331B68184624370B
:100E8C00BD4690BD2C01002080B485B000AF7860C9
:100E9C0000237B737B68002B00F0E2800023FB7344
:100EAC00DAE0FA7B714913469B0013449B000B4418
:100EBC0010331B687A689A4240F0CB8001237B7315
:100ECC00FB7B002B2BD0FB7B262B28D8FB7B5A1CC7
:100EDC00664913469B0013449B000B441B68002B74
:100EEC001DD0FB7B5A1C614913469B0013449B008D
:100EFC000B4404331968FA7B5C4813469B0013447B
:100F0C009B00034404331B68FA7B01321944574895
:100F1C0013469B0013449B00034404331960FB7B72
:100F2C00BB7360E0BB7B591CBA7B50480B469B00E3
:100F3C000B449B00034419684C4813469B00134414
:100F4C009B0003441960BB7B591CBA7B47480B467A
:100F5C009B000B449B000344083319684348134619
:100F6C009B0013449B00034408331960BB7B591C42
:100F7C00BA7B3E480B469B000B449B000344043356
:100F8C0019683A4813469B0013449B0003440433EE
:100F9C001960BB7B591CBA7B34480B469B000B4435
:100FAC009B0003440C331878304913469B001344C0
:100FBC009B000B440C3302461A70BB7B591CBA7B4A
:100FCC002A480B469B000B449B00034410331968C2
:100FDC00264813469B0013449B00034410331960AE
:100FEC00BB7B0133BB73BB7B262B9BD9BA7B1F49C5
:100FFC0013469B0013449B000B4400221A60BA7BDF
:10100C001A4913469B0013449B000B4408330022DF
:10101C001A60BA7B154913469B0013449B000B4482
:10102C00043300221A60BA7B104913469B00134408
:10103C009B000B440C3300221A70BA7B0B491346ED
:10104C009B0013449B000B44103300221A607B7BE3
:10105C0007E0FB7B0133FB73FB7B272B7FF621AF78
:10106C007B7B18461437BD4680BC70472C01002092
:10107C00B0B586B000AF114B1B7B002B19D00F4BBA
:10108C001B6898470D4B00221A730C4B3C1D1D46D8
:10109C000FCD0FC42B6823607B691846FFF7F4FE55
:1010AC00FB68002B05D07B68F968FA681846FFF7D7
:1010BC0095FD00BF1837BD46B0BD00BF2C01002008
:1010CC0080B400AF094B1B680133084A1360074B0F
:1010DC001B68002B04D1054B1B680133034A1360BA
:1010EC00024B1B681846BD4680BC70474C04002060
:1010FC0080B483B000AF7860054A7B681360054B01
:10110C0000221A6000BF0C37BD4680BC704700BF80
:10111C00540400205804002080B483B000AF7860E1
:10112C00054A7B681360054B00221A6000BF0C3720
:10113C00BD4680BC704700BF5C04002060040020EA
:10114C0080B483B000AF7860054A7B681360054BB0
:10115C0000221A6000BF0C37BD4680BC704700BF30
:10116C00640400206804002080B483B000AF786071
:10117C00054A7B681360054B00221A6000BF0C37D0
:10118C00BD4680BC704700BF6C040020700400207A
:10119C0080B483B000AF7860054A7B681360054B60
:1011AC0000221A6000BF0C37BD4680BC704700BFE0
:1011BC00740400207804002080B400AF394B1B6805
:1011CC00002B0BDD374B1B68013B364A1360354B4C
:1011DC001B68002B02DC344B01221A60334B1B685A
:1011EC00002B0BDD314B1B68013B304A13602F4B3E
:1011FC001B68002B02DC2E4B01221A602D4B1B6846
:10120C00002B0BDD2B4B1B68013B2A4A1360294B2F
:10121C001B68002B02DC284B01221A60274B1B6831
:10122C00002B0BDD254B1B68013B244A1360234B21
:10123C001B68002B02DC224B01221A60214B1B681D
:10124C00002B0BDD1F4B1B68013B1E4A13601D4B13
:10125C001B68002B02DC1C4B01221A601B4B1B6809
:10126C00002B0BDD194B1B68013B184A1360174B05
:10127C001B68002B02DC164B01221A60154B1B68F5
:10128C00002B0BDD134B1B68013B124A1360114BF7
:10129C001B68002B02DC104B01221A6000BFBD46FC
:1012AC0080BC704754040020580400205C040020CB
:1012BC006004002064040020680400206C040020FA
:1012CC007004002074040020780400207C040020AA
:1012DC0080040020840400208804002080B485B0A1
:1012EC0000AF154B9B69144A43F001039361124BF9
:1012FC009B6903F00103BB60BB680F4BDB690E4AB3
:10130C0043F08053D3610C4BDB6903F080537B605B
:10131C007B680A4B5B68FB60FB6823F0E063FB6057
:10132C00FB6843F00073FB60044AFB68536000BF2A
:10133C001437BD4680BC70470010024000000140CD
:10134C0080B584B000AF78607B681B68B3F1804FC8
:10135C0014D1194BDB69184A43F00103D361164BC6
:10136C00DB6903F00103FB60FB68002200211C20F9
:10137C0000F031FF1C2000F04AFF18E07B681B686E
:10138C000E4A934213D10C4BDB690B4A43F0020318
:10139C00D361094BDB6903F00203BB60BB6800221D
:1013AC0000211D2000F017FF1D2000F030FF00BFB2
:1013BC001037BD4680BD00BF001002400004004045
:1013CC0080B588B000AF786007F1100300221A6076
:1013DC005A609A60DA607B681B680F4A934217D197
:1013EC000E4B9B690D4A43F0040393610B4B9B69B5
:1013FC0003F00403FB60FB6840233B6102237B6129
:10140C000223FB6107F110031946054800F0CCFFDD
:10141C0000BF2037BD4680BD0004004000100240D4
:10142C000008014080B588B000AF786007F1100368
:10143C0000221A605A609A60DA607B681B681F4A47
:10144C00934237D11E4BDB691D4A43F40033D36101
:10145C001B4BDB6903F40033FB60FB68184B9B6987
:10146C00174A43F004039361154B9B6903F0040383
:10147C00BB60BB6804233B6102237B610323FB61DC
:10148C0007F1100319460F4800F08EFF08233B614B
:10149C0000237B610023BB6107F110031946094847
:1014AC0000F082FF00220021262000F094FE26206E
:1014BC0000F0ADFE00BF2037BD4680BD00440040AB
:1014CC00001002400008014080B400AFFEE780B479
:1014DC0000AFFEE780B400AFFEE780B400AFFEE7DC
:1014EC0080B400AFFEE780B400AF00BFBD4680BC47
:1014FC00704780B400AF00BFBD4680BC704780B45D
:10150C0000AF00BFBD4680BC704780B500AF00F097
:10151C006FFD00BF80BD000080B500AF024801F038
:10152C00B9FE00BF80BD00BFE404002080B500AF51
:10153C00024801F0AFFE00BF80BD00BF9C0400203C
:10154C0080B500AF024802F067FD00BF80BD00BF50
:10155C002C05002080B586B000AF7860144A154B7E
:10156C00D31A7B617B693B61134B1B68002B02D147
:10157C00114B124A1A60104B1A687B6813443A6973
:10158C009A4207D203F0C8FA03460C221A604FF0B5
:10159C00FF3309E0084B1B68FB60074B1A687B683C
:1015AC001344054A1360FB6818461837BD4680BDC6
:1015BC0000500020000400008C040020880500204E
:1015CC0080B400AF00BFBD4680BC704780B500AF93
:1015DC007B4B1B780B2B00F2708401A252F823F08A
:1015EC001D1600085D1600080D17000809180008E4
:1015FC00BF1800087F1900080D1A0008E11A00082E
:10160C006F1B0008FD1B0008931C00082D1D000813
:10161C00FEF73EFF6A4B01221A706A4B1B6864226C
:10162C0002FB03F31846FFF763FD6420FFF774FD1C
:10163C000120FFF785FD644B1B68644A1360614B06
:10164C001B68634A13606348FEF7BCFD00F04CBC9A
:10165C00FEF75CFFFEF7A6FF5F4B1B68012B1CD14E
:10166C006420FFF759FD594B1B68013B574A136027
:10167C00574B1B68013B564A1360554B1B68002B9C
:10168C0003DC564B1B68524A1360504B1B68504A84
:10169C00126811461846FEF779FD514B1B68012B59
:1016AC0012D14E4B1B68642202FB03F31846FFF762
:1016BC001FFD434B02221A704A4B1B68012B03D1AE
:1016CC003F4B1A78484B1A700120FEF7ABFD0346CE
:1016DC00012B40F0F483FEF7DBFE4448FEF772FD6D
:1016EC00374B05221A70384B1B68414A1360354B37
:1016FC001B68404A1360394B1B683F4A1360DEE39A
:10170C00FEF704FFFEF75EFF334B1B68012B24D161
:10171C006420FFF701FD2D4B1B68013B2B4A136026
:10172C002B4B1B68013B2A4A1360284B1B68002B70
:10173C0003DC244B1B68254A1360254B1B68002BCC
:10174C0003DC214B1B68224A1360204B1B68204A88
:10175C00126811461846FEF719FD214B1B68012B28
:10176C0012D1184B1B68642202FB03F31846FFF7D7
:10177C00BFFC134B03221A701A4B1B68012B03D1AD
:10178C000F4B1A78184B1A700120FEF74BFD0346CD
:10179C00012B40F09683FEF77BFE1448FEF712FDFA
:1017AC00074B06221A70084B1B68114A1360054B35
:1017BC001B68104A1360094B1B680F4A136080E3C7
:1017CC000C0100205C0000205800002024010020A7
:1017DC0028010020645400086004002060000020F0
:1017EC00580400201C0100200E0100207854000831
:1017FC00100100201401002018010020FEF79AFEB1
:10180C00FEF7C0FEA24B1B68012B1CD16420FFF716
:10181C0083FCA04B1B68013B9E4A13609D4B1B68CD
:10182C00002B03DC9C4B1B689A4A13609B4B1B6878
:10183C00013B9A4A1360974B1B68984A12681146F1
:10184C001846FEF7A3FC964B1B68012B15D1924B47
:10185C001B68642202FB03F31846FFF749FC914B0B
:10186C0004221A70904B1B68012B06D11920FFF72C
:10187C008FFC8C4B1A788D4B1A700120FEF7D2FC22
:10188C000346012B40F01F83FEF702FE8848FEF74B
:10189C0099FC844B07221A70864B1B68864A13608E
:1018AC00864B1B68864A13607B4B1B68854A13600A
:1018BC0009E3FEF753FEFEF765FE754B1B68012B23
:1018CC0024D16420FFF728FC724B1B68013B714A42
:1018DC001360704B1B68002B03DC764B1B686D4A46
:1018EC0013606E4B1B68013B6C4A13606B4B1B689F
:1018FC00002B03DC714B1B68684A1360654B1B683B
:10190C00664A126811461846FEF740FC644B1B6889
:10191C00012B12D1694B1B68642202FB03F318469E
:10192C00FFF7E6FB5F4B01221A705F4B1B68012B24
:10193C0003D15C4B1A785D4B1A700120FEF772FCD8
:10194C000346012B40F0C182FEF7A2FD5848FEF77A
:10195C0039FC544B08221A70564B1B68564A1360BC
:10196C00564B1B68564A13604B4B1B68554A136009
:10197C00ABE2FEF7CBFDFEF715FE0120FEF752FCA5
:10198C000346012B12D1FEF783FD4F48FEF71AFCDC
:10199C00484B1B68484A126811461846FEF726FC4D
:1019AC00404B09221A70494B01221A700220FEF793
:1019BC0039FC0346012B02D13A4B06221A70032044
:1019CC00FEF730FC0346012B40F081824048FEF7C5
:1019DC00F9FB344B01221A70364B1B682D4A1360ED
:1019EC00364B1B682D4A1360344B1B68642202FB78
:1019FC0003F31846FFF77CFB6420FFF78DFB66E2D0
:101A0C00FEF784FDFEF7DEFD0120FEF70BFC03461E
:101A1C00012B12D1FEF73CFD2B48FEF7D3FB254BD7
:101A2C001B68254A126811461846FEF7DFFB1D4B52
:101A3C0009221A70254B02221A700220FEF7F2FBC3
:101A4C000346012B02D1174B07221A700320FEF715
:101A5C00E9FB0346012B40F03C821D48FEF7B2FB2C
:101A6C00104B02221A70134B1B680A4A13600A4B64
:101A7C001B680A4A1360084B1B68642202FB03F3C1
:101A8C001846FFF735FB6420FFF746FB21E200BF49
:101A9C0060040020240100206000002028010020A8
:101AAC00580400200C0100201C0100200E01002015
:101ABC007854000858000020100100205C00002021
:101ACC001401002018010020885400080D0100208A
:101ADC0064540008FEF72EFDFEF754FD0120FEF7BE
:101AEC00A1FB0346012B12D1FEF7D2FCAA48FEF74C
:101AFC0069FBAA4B1B68AA4A126811461846FEF7E6
:101B0C0075FBA84B09221A70A74B03221A700220EE
:101B1C00FEF788FB0346012B02D1A24B08221A7058
:101B2C000320FEF77FFB0346012B40F0D4819F4836
:101B3C00FEF748FB9B4B03221A709D4B1B689D4A7A
:101B4C001360964B1B689C4A1360994B1B6864226C
:101B5C0002FB03F31846FFF7CBFA6420FFF7DCFA1D
:101B6C00B9E1FEF7FBFCFEF70DFD0120FEF75AFB79
:101B7C000346012B12D1FEF78BFC8748FEF722FBA4
:101B8C00864B1B68864A126811461846FEF72EFBD8
:101B9C00844B09221A70844B04221A700220FEF71F
:101BAC0041FB0346012B02D17E4B05221A70032008
:101BBC00FEF738FB0346012B40F08F817F48FEF780
:101BCC0001FB784B04221A707D4B1B68794A136019
:101BDC00724B1B68784A1360794B1B68642202FBBA
:101BEC0003F31846FFF784FA6420FFF795FA74E1C3
:101BFC00FEF78CFCFEF7C6FC0120FEF713FB034638
:101C0C00012B0FD1674B0A221A706E48FEF7DAFAD5
:101C1C006B4B1B686C4A126811461846FEF7E6FAC5
:101C2C00FEF736FC0220FEF7FDFA0346012B13D11A
:101C3C005B4B1B6801335A4A1360594B1B68132BBF
:101C4C0002DD574B02221A60544B1B68544A12682F
:101C5C0011461846FEF7CAFA0320FEF7E3FA0346CC
:101C6C00012B40F03C814E4B1B684C4A136057488B
:101C7C00FEF7A8FA494B1B68494A126811461846E8
:101C8C00FEF7B4FA2BE1FEF769FCFEF79BFC012092
:101C9C00FEF7C8FA0346012B0FD1424B0B221A70E8
:101CAC004B48FEF78FFA424B1B684A4A12681146A2
:101CBC001846FEF79BFAFEF7EBFB0220FEF7B2FA92
:101CCC000346012B15D1404B1B6801333E4A136070
:101CDC003D4B1A68314B1B689A4202DB3A4B01228E
:101CEC001A60374B1B68384A126811461846FEF7C3
:101CFC007DFA0320FEF796FA0346012B40F0F180A3
:101D0C00314B1B682E4A13603348FEF75BFA2C4BA1
:101D1C001B682D4A126811461846FEF767FAE0E078
:101D2C00FEF708FCFEF73EFC0120FEF77BFA0346AB
:101D3C00012B40F08980194B1A68214B1B68D31A70
:101D4C001B4A13601948FEF73DFA174B1B78012B01
:101D5C000ED1124B1B68174A1360154B1B68164AA1
:101D6C0013601E48FEF72EFA0E4B01221A705EE02D
:101D7C000D4B1B78022B35D1084B1B680D4A136099
:101D8C000F4B1B680C4A13601548FEF71BFA054BEA
:101D9C0002221A704BE000BF885400085800002043
:101DAC00100100200C0100200D01002064540008DB
:101DBC005C0000202401002028010020A45400080D
:101DCC0060000020B854000818010020D854000806
:101DDC00EC540008140100200C5500082055000894
:101DEC003C550008414B1B78042B0ED1404B1B6813
:101DFC00404A1360404B1B68404A13604048FEF752
:101E0C00E1F9404B04221A7011E0384B1B78032B7C
:101E1C000DD13D4B1B68374A1360374B1B68374A53
:101E2C0013603A48FEF7CEF9364B03221A70364B44
:101E3C001B68642202FB03F31846FFF759F9642070
:101E4C00FFF76AF9FEF724FB0220FEF7EBF90346D5
:101E5C00012B15D12E4B1B6801332D4A13602C4BD3
:101E6C001A68254B1B689A4202DB294B01221A6027
:101E7C00254B1B68264A126811461846FEF7B6F920
:101E8C000320FEF7CFF90346012B2CD1204B1B6806
:101E9C001D4A1360184B1A681B4B1B68D31A144A43
:101EAC0013601C48FEF78EF9174B1B68184A126812
:101EBC0011461846FEF79AF915E000BF14E000BF72
:101ECC0012E000BF10E000BF0EE000BF0CE000BF4E
:101EDC000AE000BF08E000BF06E000BF04E000BF5E
:101EEC0002E000BF00E000BF00BF80BD0D0100207C
:101EFC006000002024010020580000202801002050
:101F0C00585500080C0100205C0000207455000896
:101F1C001401002090550008FFF752FB0B480C49A8
:101F2C000C4A002302E0D458C4500433C4188C4229
:101F3C00F9D3094A094C002301E013600432A24290
:101F4C00FBD302F0EFFDFEF781FB70470000002091
:101F5C00D80000200C560008D8000020880500206E
:101F6C00FEE7000080B500AF084B1B68074A43F042
:101F7C0010031360032000F023F90F2000F008F881
:101F8C00FFF7ACF90023184680BD00BF00200240CB
:101F9C0080B582B000AF7860124B1A68124B1B7878
:101FAC0019464FF47A73B3FBF1F3B2FBF3F3184613
:101FBC0000F03BF90346002B01D001230EE07B68B7
:101FCC000F2B0AD8002279684FF0FF3000F003F98C
:101FDC00064A7B681360002300E00123184608378B
:101FEC00BD4680BD68000020700000206C00002001
:101FFC0080B400AF054B1B781A46054B1B68134485
:10200C00034A136000BFBD4680BC704770000020BF
:10201C007405002080B400AF024B1B681846BD4607
:10202C0080BC70477405002080B485B000AF786028
:10203C007B6803F00703FB600C4BDB68BB60BA6882
:10204C004FF6FF031340BB60FB681A02BB681343D7
:10205C0043F0BF6343F40033BB60044ABB68D360F6
:10206C0000BF1437BD4680BC704700BF00ED00E0D8
:10207C0080B400AF044BDB681B0A03F0070318465F
:10208C00BD4680BC704700BF00ED00E080B483B05B
:10209C0000AF0346FB7197F90730002B0BDBFB7984
:1020AC0003F01F02064997F907305B09012000FA7B
:1020BC0002F241F8232000BF0C37BD4680BC7047AC
:1020CC0000E100E080B483B000AF03463960FB71DF
:1020DC0097F90730002B0ADB3B68DAB20C4997F909
:1020EC0007301201D2B20B4483F800230AE03B689C
:1020FC00DAB20849FB7903F00F03043B1201D2B2A8
:10210C000B441A7600BF0C37BD4680BC704700BF2D
:10211C0000E100E000ED00E080B489B000AFF860B1
:10212C00B9607A60FB6803F00703FB61FB69C3F1DC
:10213C000703042B28BF0423BB61FB690433062B64
:10214C0002D9FB69033B00E000237B614FF0FF32B7
:10215C00BB6902FA03F3DA43BB681A407B699A4005
:10216C004FF0FF317B6901FA03F3D9437B680B40D5
:10217C00134318462437BD4680BC704780B582B0E7
:10218C0000AF78607B68013BB3F1807F01D3012302
:10219C000FE00A4A7B68013B53600F214FF0FF3080
:1021AC00FFF790FF054B00229A60044B07221A6040
:1021BC00002318460837BD4680BD00BF10E000E084
:1021CC0080B582B000AF78607868FFF72DFF00BF54
:1021DC000837BD4680BD80B586B000AF0346B960F8
:1021EC007A60FB7300237B61FFF742FF78617A68AA
:1021FC00B9687869FFF790FF024697F90F301146DE
:10220C001846FFF75FFF00BF1837BD4680BD80B58D
:10221C0082B000AF0346FB7197F907301846FFF701
:10222C0035FF00BF0837BD4680BD80B582B000AF1A
:10223C0078607868FFF7A2FF034618460837BD465A
:10224C0080BD80B485B000AF78600023FB737B68E1
:10225C0093F82130DBB2022B08D07B6804229A63FE
:10226C007B68002283F82020012320E07B681B6818
:10227C001A687B681B6822F00E021A607B681B6868
:10228C001A687B681B6822F001021A607B681A6C62
:10229C007B68DB6B012101FA02F25A607B68012238
:1022AC0083F821207B68002283F82020FB7B1846D2
:1022BC001437BD4680BC704780B584B000AF7860E1
:1022CC000023FB737B6893F82130DBB2022B05D023
:1022DC007B6804229A630123FB7351E07B681B68C3
:1022EC001A687B681B6822F00E021A607B681B68F8
:1022FC001A687B681B6822F001021A607B681B68F5
:10230C00224A934229D07B681B68214A934222D0EF
:10231C007B681B681F4A93421AD07B681B681E4A55
:10232C00934212D07B681B681C4A93420AD07B688C
:10233C001B681B4A934202D14FF480130EE04FF0FE
:10234C0080730BE04FF4803308E04FF4805305E0CA
:10235C004FF4807302E0102300E00123114A536014
:10236C007B68012283F821207B68002283F82020DF
:10237C007B685B6B002B03D07B685B6B7868984742
:10238C00FB7B18461037BD4680BD00BF08000240DD
:10239C001C00024030000240440002405800024041
:1023AC006C0002400000024080B48BB000AF78603B
:1023BC00396000237B6200233B6269E101227B6A66
:1023CC0002FA03F3FB613B681B68FA691340BB61BB
:1023DC00BA69FB699A4240F058813B685B689A4A3B
:1023EC0093425ED0984A934275D8984A934258D0FB
:1023FC00964A93426FD8964A934252D0944A93424B
:10240C0069D8944A93424CD0924A934263D8924AE8
:10241C00934246D0904A93425DD8122B2AD8122B65
:10242C0059D801A252F823F0AF24000889240008DF
:10243C009B240008DD240008E3240008E3240008A2
:10244C00E3240008E3240008E3240008E324000844
:10245C00E3240008E3240008E3240008E324000834
:10246C00E3240008E3240008E32400089124000876
:10247C00A5240008794A934213D02CE03B68DB6812
:10248C003B6229E03B68DB6804333B6224E03B6839
:10249C00DB6808333B621FE03B68DB680C333B6254
:1024AC001AE03B689B68002B02D104233B6213E0CB
:1024BC003B689B68012B05D108233B627B68FA695A
:1024CC001A6109E008233B627B68FA695A6103E0F0
:1024DC0000233B6200E000BFBB69FF2B01D87B6887
:1024EC0001E07B6804337B61BB69FF2B02D87B6AFC
:1024FC009B0002E07B6A083B9B003B617B691A688E
:10250C000F213B6901FA03F3DB431A40396A3B693B
:10251C0001FA03F31A437B691A603B685B6803F0AA
:10252C008053002B00F0B1804D4B9B694C4A43F01B
:10253C00010393614A4B9B6903F00103BB60BB68C9
:10254C00484A7B6A9B08023352F82330FB607B6A53
:10255C0003F003039B000F2202FA03F3DB43FA6838
:10256C001340FB607B68404A934213D07B683F4A20
:10257C0093420DD07B683E4A934207D07B683D4A1C
:10258C00934201D1032306E0042304E0022302E07A
:10259C00012300E000237A6A02F0030292009340C8
:1025AC00FA681343FB602F497B6A9B080233FA6875
:1025BC0041F823203B685B6803F48013002B06D0A2
:1025CC002D4B9A682C49BB6913438B6006E02A4B50
:1025DC009A68BB69DB43284913408B603B685B6896
:1025EC0003F40013002B06D0234BDA682249BB6995
:1025FC001343CB6006E0204BDA68BB69DB431E4912
:10260C001340CB603B685B6803F40033002B06D0AF
:10261C00194B5A681849BB6913434B6006E0164BBB
:10262C005A68BB69DB43144913404B603B685B68D9
:10263C0003F48033002B21D00F4B1A680E49BB6971
:10264C0013430B6021E000BF00003210000031107A
:10265C0000002210000021100000121000001110C8
:10266C00001002400000014000080140000C014035
:10267C000010014000140140000401400B4B1A688B
:10268C00BB69DB43094913400B607B6A01337B62F6
:10269C003B681A687B6A22FA03F3002B7FF48EAE38
:1026AC0000BF00BF2C37BD4680BC70470004014002
:1026BC0080B485B000AF78600B467B807B689A68ED
:1026CC007B881340002B02D00123FB7301E0002315
:1026DC00FB73FB7B18461437BD4680BC704780B437
:1026EC0083B000AF78600B467B8013467B707B78A1
:1026FC00002B03D07A887B681A6103E07B881A046C
:10270C007B681A6100BF0C37BD4680BC704780B433
:10271C0085B000AF78600B467B807B68DB68FB6024
:10272C007A88FB6813401A04FB68D9437B880B40FA
:10273C001A437B681A6100BF1437BD4680BC7047D2
:10274C0080B586B000AF78607B68002B01D1012387
:10275C006CE27B681B6803F00103002B00F08780A0
:10276C00924B5B6803F00C03042B0CD08F4B5B6813
:10277C0003F00C03082B12D18C4B5B6803F48033F1
:10278C00B3F5803F0BD1894B1B6803F40033002B4E
:10279C006CD07B685B68002B68D1012346E27B68B8
:1027AC005B68B3F5803F06D1804B1B687F4A43F4CE
:1027BC00803313602EE07B685B68002B0CD17B4B65
:1027CC001B687A4A23F480331360784B1B68774A72
:1027DC0023F4802313601DE07B685B68B3F5A02FA6
:1027EC000CD1724B1B68714A43F4802313606F4BFE
:1027FC001B686E4A43F4803313600BE06B4B1B6811
:10280C006A4A23F480331360684B1B68674A23F4CD
:10281C00802313607B685B68002B13D0FFF7FAFBF7
:10282C00386108E0FFF7F6FB02463B69D31A642BCC
:10283C0001D90323FAE15D4B1B6803F40033002B31
:10284C00F0D014E0FFF7E6FB386108E0FFF7E2FB9D
:10285C0002463B69D31A642B01D90323E6E1534B9F
:10286C001B6803F40033002BF0D100E000BF7B6841
:10287C001B6803F00203002B63D04C4B5B6803F026
:10288C000C03002B0BD0494B5B6803F00C03082B9B
:10289C001CD1464B5B6803F48033002B16D1434BA1
:1028AC001B6803F00203002B05D07B681B69012B0E
:1028BC0001D00123BAE13D4B1B6823F0F8027B6881
:1028CC005B69DB00394913430B603AE07B681B6999
:1028DC00002B20D0364B01221A60FFF79BFB38618E
:1028EC0008E0FFF797FB02463B69D31A022B01D98C
:1028FC0003239BE12D4B1B6803F00203002BF0D04C
:10290C002A4B1B6823F0F8027B685B69DB002749C4
:10291C0013430B6015E0264B00221A60FFF77AFB7D
:10292C00386108E0FFF776FB02463B69D31A022BAD
:10293C0001D903237AE11D4B1B6803F00203002B22
:10294C00F0D17B681B6803F00803002B3AD07B683E
:10295C009B69002B19D0174B01221A60FFF75AFB09
:10296C00386108E0FFF756FB02463B69D31A022B8D
:10297C0001D903235AE10D4B5B6A03F00203002BD0
:10298C00F0D0012000F0CCFA1CE00A4B00221A60B7
:10299C00FFF740FB38610FE0FFF73CFB02463B6959
:1029AC00D31A022B08D9032340E100BF00100240C8
:1029BC0000004242800442429E4B5B6A03F00203D9
:1029CC00002BE9D17B681B6803F00403002B00F09B
:1029DC00A6800023FB75974BDB6903F08053002B1B
:1029EC000DD1944BDB69934A43F08053D361914BE7
:1029FC00DB6903F08053BB60BB680123FB758E4B16
:102A0C001B6803F48073002B18D18B4B1B688A4A0C
:102A1C0043F480731360FFF7FDFA386108E0FFF7A9
:102A2C00F9FA02463B69D31A642B01D90323FDE062
:102A3C00814B1B6803F48073002BF0D07B68DB6840
:102A4C00012B06D17B4B1B6A7A4A43F001031362BC
:102A5C002DE07B68DB68002B0CD1764B1B6A754A2A
:102A6C0023F001031362734B1B6A724A23F00403B5
:102A7C0013621CE07B68DB68052B0CD16D4B1B6A69
:102A8C006C4A43F0040313626A4B1B6A694A43F0B5
:102A9C00010313620BE0674B1B6A664A23F00103C8
:102AAC001362644B1B6A634A23F0040313627B6852
:102ABC00DB68002B15D0FFF7ADFA38610AE0FFF7A1
:102ACC00A9FA02463B69D31A41F28832934201D9E2
:102ADC000323ABE0574B1B6A03F00203002BEED031
:102AEC0014E0FFF797FA38610AE0FFF793FA024611
:102AFC003B69D31A41F28832934201D9032395E002
:102B0C004C4B1B6A03F00203002BEED1FB7D012B17
:102B1C0005D1484BDB69474A23F08053D3617B686E
:102B2C00DB69002B00F08180424B5B6803F00C03E7
:102B3C00082B61D07B68DB69022B46D13F4B00220E
:102B4C001A60FFF767FA386108E0FFF763FA02468C
:102B5C003B69D31A022B01D9032367E0354B1B6861
:102B6C0003F00073002BF0D17B681B6AB3F5803F38
:102B7C0008D1304B5B6823F400327B689B682D498D
:102B8C0013434B602B4B5B6823F474127B68196AFC
:102B9C007B685B6A0B43274913434B60274B01222D
:102BAC001A60FFF737FA386108E0FFF733FA02468C
:102BBC003B69D31A022B01D9032337E01D4B1B6849
:102BCC0003F00073002BF0D02FE01C4B00221A6096
:102BDC00FFF720FA386108E0FFF71CFA02463B6960
:102BEC00D31A022B01D9032320E0124B1B6803F0EC
:102BFC000073002BF0D118E07B68DB69012B01D14D
:102C0C00012313E00B4B5B68FB60FB6803F4803221
:102C1C007B681B6A9A4206D1FB6803F470127B68CE
:102C2C005B6A9A4201D0012300E000231846183752
:102C3C00BD4680BD00100240007000406000424262
:102C4C0080B584B000AF786039607B68002B01D10F
:102C5C000123D0E06A4B1B6803F007033A689A42E1
:102C6C0010D9674B1B6823F0070265493B68134377
:102C7C000B60634B1B6803F007033A689A4201D060
:102C8C000123B8E07B681B6803F00203002B20D003
:102C9C007B681B6803F00403002B05D0594B5B6861
:102CAC00584A43F4E06353607B681B6803F00803E5
:102CBC00002B05D0534B5B68524A43F4605353606E
:102CCC00504B5B6823F0F0027B689B684D491343C3
:102CDC004B607B681B6803F00103002B40D07B68C2
:102CEC005B68012B07D1474B1B6803F40033002BA7
:102CFC0015D101237FE07B685B68022B07D1414B28
:102D0C001B6803F00073002B09D1012373E03D4BCA
:102D1C001B6803F00203002B01D101236BE0394B3C
:102D2C005B6823F003027B685B68364913434B6096
:102D3C00FFF770F9F8600AE0FFF76CF90246FB68E0
:102D4C00D31A41F28832934201D9032353E02D4B1D
:102D5C005B6803F00C027B685B689B009A42EBD1CA
:102D6C00274B1B6803F007033A689A4210D2244B96
:102D7C001B6823F0070222493B6813430B60204B6E
:102D8C001B6803F007033A689A4201D0012332E032
:102D9C007B681B6803F00403002B08D0194B5B689D
:102DAC0023F4E0627B68DB68164913434B607B6855
:102DBC001B6803F00803002B09D0124B5B6823F44B
:102DCC0060527B681B69DB000E4913434B6000F0BB
:102DDC0021F802460B4B5B681B0903F00F030A49F1
:102DEC00CB5C22FA03F3094A1360094B1B681846A3
:102DFC00FFF7CEF8002318461037BD4680BD00BF44
:102E0C000020024000100240A45500086800002079
:102E1C006C00002080B487B000AF0023FB6000235F
:102E2C00BB6000237B6100237B6000233B611E4B56
:102E3C005B68FB60FB6803F00C03042B02D0082BCF
:102E4C0003D027E0194B3B6127E0FB689B0C03F098
:102E5C000F03174AD35C7B60FB6803F48033002BB1
:102E6C0010D0114B5B685B0C03F00103114AD35C6F
:102E7C00BB607B680D4A02FB03F2BB68B2FBF3F349
:102E8C007B6104E07B680C4A02FB03F37B617B698A
:102E9C003B6102E0054B3B6100BF3B6918461C37A8
:102EAC00BD4680BC704700BF0010024000127A0083
:102EBC00BC550008CC55000800093D0080B400AF9B
:102ECC00024B1B681846BD4680BC7047680000204A
:102EDC0080B500AFFFF7F2FF0246054B5B681B0A9B
:102EEC0003F007030349CB5C22FA03F3184680BDB9
:102EFC0000100240B455000880B500AFFFF7DEFFAC
:102F0C000246054B5B68DB0A03F007030349CB5C05
:102F1C0022FA03F3184680BD00100240B455000895
:102F2C0080B485B000AF78600A4B1B680A4AA2FBDC
:102F3C0003235B0A7A6802FB03F3FB6000BFFB68A8
:102F4C005A1EFA60002BF9D100BF00BF1437BD46E2
:102F5C0080BC704768000020D34D621080B582B0F1
:102F6C0000AF78607B68002B01D1012341E07B68C6
:102F7C0093F83D30DBB2002B06D17B68002283F83E
:102F8C003C207868FEF7DCF97B68022283F83D2050
:102F9C007B681A687B6804331946104600F030FCD5
:102FAC007B68012283F846207B68012283F83E204F
:102FBC007B68012283F83F207B68012283F8402044
:102FCC007B68012283F841207B68012283F8422030
:102FDC007B68012283F843207B68012283F844201C
:102FEC007B68012283F845207B68012283F83D2011
:102FFC00002318460837BD4680BD000080B485B05C
:10300C0000AF78607B6893F83D30DBB2012B01D0C8
:10301C0001233AE07B68022283F83D207B681B6821
:10302C00DA687B681B6842F00102DA607B681B6817
:10303C00184A93420ED07B681B68B3F1804F09D0BD
:10304C007B681B68144A934204D07B681B68134A44
:10305C00934211D17B681B689B6803F00703FB60EC
:10306C00FB68062B10D07B681B681A687B681B6892
:10307C0042F001021A6007E07B681B681A687B68E3
:10308C001B6842F001021A60002318461437BD4633
:10309C0080BC7047002C0140000400400008004038
:1030AC0080B582B000AF78607B68002B01D1012322
:1030BC0041E07B6893F83D30DBB2002B06D17B6896
:1030CC00002283F83C20786800F039F87B680222F3
:1030DC0083F83D207B681A687B68043319461046D8
:1030EC0000F08EFB7B68012283F846207B6801226E
:1030FC0083F83E207B68012283F83F207B68012205
:10310C0083F840207B68012283F841207B680122F0
:10311C0083F842207B68012283F843207B680122DC
:10312C0083F844207B68012283F845207B680122C8
:10313C0083F83D20002318460837BD4680BD80B477
:10314C0083B000AF786000BF0C37BD4680BC7047C1
:10315C0080B584B000AF786039603B68002B09D132
:10316C007B6893F83E30DBB2012B14BF01230023A4
:10317C00DBB222E03B68042B09D17B6893F83F302B
:10318C00DBB2012B14BF01230023DBB215E03B683B
:10319C00082B09D17B6893F84030DBB2012B14BFAC
:1031AC0001230023DBB208E07B6893F84130DBB2EB
:1031BC00012B14BF01230023DBB2002B01D0012310
:1031CC005EE03B68002B04D17B68022283F83E2032
:1031DC0013E03B68042B04D17B68022283F83F2068
:1031EC000BE03B68082B04D17B68022283F840205B
:1031FC0003E07B68022283F841207B681B68012274
:10320C003968184600F07CFD7B681B681E4A9342A7
:10321C0007D17B681B685A6C7B681B6842F40042C0
:10322C005A647B681B68184A93420ED07B681B68F3
:10323C00B3F1804F09D07B681B68144A934204D0C9
:10324C007B681B68124A934211D17B681B689B6890
:10325C0003F00703FB60FB68062B10D07B681B6830
:10326C001A687B681B6842F001021A6007E07B68F1
:10327C001B681A687B681B6842F001021A60002305
:10328C0018461037BD4680BD002C0140000400409C
:10329C000008004080B582B000AF78607B681B6886
:1032AC001B6903F00203022B22D17B681B68DB68CD
:1032BC0003F00203022B1BD17B681B686FF0020228
:1032CC001A617B6801221A777B681B689B6903F083
:1032DC000303002B03D0786800F076FA05E07868D9
:1032EC0000F069FA786800F078FA7B6800221A77A7
:1032FC007B681B681B6903F00403042B22D17B68D9
:10330C001B68DB6803F00403042B1BD17B681B6870
:10331C006FF004021A617B6802221A777B681B68C3
:10332C009B6903F44073002B03D0786800F04CFACF
:10333C0005E0786800F03FFA786800F04EFA7B6898
:10334C0000221A777B681B681B6903F00803082BA3
:10335C0022D17B681B68DB6803F00803082B1BD1A8
:10336C007B681B686FF008021A617B6804221A776D
:10337C007B681B68DB6903F00303002B03D07868C0
:10338C0000F022FA05E0786800F015FA786800F091
:10339C0024FA7B6800221A777B681B681B6903F090
:1033AC001003102B22D17B681B68DB6803F0100321
:1033BC00102B1BD17B681B686FF010021A617B68A5
:1033CC0008221A777B681B68DB6903F44073002BB7
:1033DC0003D0786800F0F8F905E0786800F0EBF9B4
:1033EC00786800F0FAF97B6800221A777B681B6812
:1033FC001B6903F00103012B0ED17B681B68DB6892
:10340C0003F00103012B07D17B681B686FF00102ED
:10341C001A617868FDF7F8FA7B681B681B6903F082
:10342C008003802B0ED17B681B68DB6803F0800364
:10343C00802B07D17B681B686FF080021A6178685B
:10344C0000F0E9FC7B681B681B6903F04003402B10
:10345C000ED17B681B68DB6803F04003402B07D15F
:10346C007B681B686FF040021A61786800F0BEF947
:10347C007B681B681B6903F02003202B0ED17B6833
:10348C001B68DB6803F02003202B07D17B681B68CB
:10349C006FF020021A61786800F0B4FC00BF0837A6
:1034AC00BD4680BD80B586B000AFF860B9607A606B
:1034BC000023FB75FB6893F83C30012B01D10223F0
:1034CC00AEE0FB68012283F83C207B680C2B00F2F9
:1034DC009F8001A252F823F0193500081D36000810
:1034EC001D3600081D360008593500081D36000829
:1034FC001D3600081D3600089B3500081D360008D7
:10350C001D3600081D360008DB350008FB681B68FB
:10351C00B968184600F0D6F9FB681B689A69FB6815
:10352C001B6842F008029A61FB681B689A69FB6889
:10353C001B6822F004029A61FB681B689969BB68DE
:10354C001A69FB681B680A439A6164E0FB681B6894
:10355C00B968184600F01CFAFB681B689A69FB688E
:10356C001B6842F400629A61FB681B689A69FB68ED
:10357C001B6822F480629A61FB681B689969BB68BE
:10358C001B691A02FB681B680A439A6143E0FB68DB
:10359C001B68B968184600F065FAFB681B68DA69A5
:1035AC00FB681B6842F00802DA61FB681B68DA6989
:1035BC00FB681B6822F00402DA61FB681B68D9699E
:1035CC00BB681A69FB681B680A43DA6123E0FB6875
:1035DC001B68B968184600F0AFFAFB681B68DA691B
:1035EC00FB681B6842F40062DA61FB681B68DA69ED
:1035FC00FB681B6822F48062DA61FB681B68D9697E
:10360C00BB681B691A02FB681B680A43DA6102E09B
:10361C000123FB7500BFFB68002283F83C20FB7D77
:10362C0018461837BD4680BD80B584B000AF7860B1
:10363C0039600023FB737B6893F83C30012B01D17C
:10364C000223B4E07B68012283F83C207B680222D1
:10365C0083F83D207B681B689B68BB60BB6823F0CC
:10366C007703BB60BB6823F47F43BB607B681B683C
:10367C00BA689A603B681B68B3F5005F3ED0B3F53F
:10368C00005F00F28780B3F5805F00F08680B3F5B1
:10369C00805F7FD8702B1AD0702B7BD8602B50D0CA
:1036AC00602B77D8502B3CD0502B73D8402B58D054
:1036BC00402B6FD8302B64D0302B6BD8202B60D0A4
:1036CC00202B67D8002B5CD0102B5AD062E07B6883
:1036DC0018683B6899683B685A683B68DB6800F07F
:1036EC00F0FA7B681B689B68BB60BB6843F0770390
:1036FC00BB607B681B68BA689A604FE07B6818688F
:10370C003B6899683B685A683B68DB6800F0D9FAFB
:10371C007B681B689A687B681B6842F480429A60DD
:10372C003CE07B6818683B6859683B68DB681A4664
:10373C0000F050FA7B681B685021184600F0A7FA7D
:10374C002CE07B6818683B6859683B68DB681A4654
:10375C0000F06EFA7B681B686021184600F097FA3F
:10376C001CE07B6818683B6859683B68DB681A4644
:10377C0000F030FA7B681B684021184600F087FA8D
:10378C000CE07B681A683B681B681946104600F011
:10379C007EFA03E00123FB7300E000BF7B6801228B
:1037AC0083F83D207B68002283F83C20FB7B184685
:1037BC001037BD4680BD80B483B000AF786000BFC9
:1037CC000C37BD4680BC704780B483B000AF7860C6
:1037DC0000BF0C37BD4680BC704780B483B000AFCF
:1037EC00786000BF0C37BD4680BC704780B483B096
:1037FC0000AF786000BF0C37BD4680BC704700003E
:10380C0080B485B000AF786039607B681B68FB6062
:10381C007B68294A93420BD07B68B3F1804F07D069
:10382C007B68264A934203D07B68254A934208D191
:10383C00FB6823F07003FB603B685B68FA6813431A
:10384C00FB607B681C4A93420BD07B68B3F1804FC2
:10385C0007D07B68194A934203D07B68184A93427D
:10386C0008D1FB6823F44073FB603B68DB68FA68A3
:10387C001343FB60FB6823F080023B685B691343D6
:10388C00FB607B68FA681A603B689A687B68DA624E
:10389C003B681A687B689A627B68074A934203D13B
:1038AC003B681A697B681A637B6801225A6100BF06
:1038BC001437BD4680BC7047002C0140000400400A
:1038CC000008004080B487B000AF786039607B6836
:1038DC001B6A7B617B681B6A23F001027B681A629E
:1038EC007B685B683B617B689B69FB60FB6823F0D2
:1038FC007003FB60FB6823F00303FB603B681B68F1
:10390C00FA681343FB607B6923F002037B613B681D
:10391C009B687A6913437B617B681C4A93420CD188
:10392C007B6923F008037B613B68DB687A6913438E
:10393C007B617B6923F004037B617B68134A9342B0
:10394C0011D13B6923F480733B613B6923F4007311
:10395C003B613B685B693A6913433B613B689B691C
:10396C003A6913433B617B683A695A607B68FA6831
:10397C009A613B685A687B685A637B687A691A62F9
:10398C0000BF1C37BD4680BC704700BF002C0140F7
:10399C0080B487B000AF786039607B681B6A7B614C
:1039AC007B681B6A23F010027B681A627B685B6879
:1039BC003B617B689B69FB60FB6823F4E043FB6025
:1039CC00FB6823F44073FB603B681B681B02FA68BE
:1039DC001343FB607B6923F020037B613B689B688E
:1039EC001B017A6913437B617B681D4A93420DD19D
:1039FC007B6923F080037B613B68DB681B017A6980
:103A0C0013437B617B6923F040037B617B68144A21
:103A1C00934213D13B6923F480633B613B6923F4EC
:103A2C0000633B613B685B699B003A6913433B61F4
:103A3C003B689B699B003A6913433B617B683A691D
:103A4C005A607B68FA689A613B685A687B689A632B
:103A5C007B687A691A6200BF1C37BD4680BC704710
:103A6C00002C014080B487B000AF786039607B686F
:103A7C001B6A7B617B681B6A23F480727B681A6209
:103A8C007B685B683B617B68DB69FB60FB6823F0F0
:103A9C007003FB60FB6823F00303FB603B681B684F
:103AAC00FA681343FB607B6923F400737B613B680A
:103ABC009B681B027A6913437B617B681D4A9342A6
:103ACC000DD17B6923F400637B613B68DB681B02CF
:103ADC007A6913437B617B6923F480637B617B6828
:103AEC00144A934213D13B6923F480533B613B69E5
:103AFC0023F400533B613B685B691B013A69134338
:103B0C003B613B689B691B013A6913433B617B68D2
:103B1C003A695A607B68FA68DA613B685A687B6874
:103B2C00DA637B687A691A6200BF1C37BD4680BCB9
:103B3C00704700BF002C014080B487B000AF7860A4
:103B4C0039607B681B6A3B617B681B6A23F480527B
:103B5C007B681A627B685B687B617B68DB69FB60F6
:103B6C00FB6823F4E043FB60FB6823F44073FB60C9
:103B7C003B681B681B02FA681343FB603B6923F428
:103B8C0000533B613B689B681B033A6913433B61E1
:103B9C007B680F4A934209D17B6923F480437B6194
:103BAC003B685B699B017A6913437B617B687A692B
:103BBC005A607B68FA68DA613B685A687B681A64F9
:103BCC007B683A691A6200BF1C37BD4680BC7047DF
:103BDC00002C014080B487B000AFF860B9607A6007
:103BEC00FB681B6A7B61FB681B6A23F00102FB68A4
:103BFC001A62FB689B693B613B6923F0F0033B61F4
:103C0C007B681B013A6913433B617B6923F00A0310
:103C1C007B617A69BB6813437B61FB683A699A6183
:103C2C00FB687A691A6200BF1C37BD4680BC7047BE
:103C3C0080B487B000AFF860B9607A60FB681B6A2B
:103C4C007B61FB681B6A23F01002FB681A62FB683D
:103C5C009B693B613B6923F470433B617B681B03AD
:103C6C003A6913433B617B6923F0A0037B61BB681A
:103C7C001B017A6913437B61FB683A699A61FB68A3
:103C8C007A691A6200BF1C37BD4680BC704780B48D
:103C9C0085B000AF786039607B689B68FB60FB681F
:103CAC0023F07003FB603A68FB68134343F007038F
:103CBC00FB607B68FA689A6000BF1437BD4680BC15
:103CCC00704780B487B000AFF860B9607A603B6031
:103CDC00FB689B687B617B6923F47F437B613B685A
:103CEC001A027B681A43BB6813437A6913437B61DE
:103CFC00FB687A699A6000BF1C37BD4680BC704770
:103D0C0080B487B000AFF860B9607A60BB6803F02C
:103D1C001F03012202FA03F37B61FB681A6A7B69B9
:103D2C00DB431A40FB681A62FB681A6ABB6803F033
:103D3C001F03796801FA03F31A43FB681A6200BF88
:103D4C001C37BD4680BC704780B485B000AF78602E
:103D5C0039607B6893F83C30012B01D1022346E09B
:103D6C007B68012283F83C207B68022283F83D208B
:103D7C007B681B685B68FB607B681B689B68BB602F
:103D8C00FB6823F07003FB603B681B68FA68134305
:103D9C00FB607B681B68FA685A607B681B68164A74
:103DAC0093420ED07B681B68B3F1804F09D07B68BF
:103DBC001B68124A934204D07B681B68104A9342DA
:103DCC000CD1BB6823F08003BB603B685B68BA68AE
:103DDC001343BB607B681B68BA689A607B680122DE
:103DEC0083F83D207B68002283F83C200023184692
:103DFC001437BD4680BC7047002C014000040040C5
:103E0C000008004080B483B000AF786000BF0C376E
:103E1C00BD4680BC704780B483B000AF786000BFF3
:103E2C000C37BD4680BC704780B582B000AF78605F
:103E3C007B68002B01D1012342E07B6893F8413071
:103E4C00DBB2002B06D17B68002283F84020786817
:103E5C00FDF7E8FA7B68242283F841207B681B6815
:103E6C00DA687B681B6822F40052DA60786800F02C
:103E7C00C5FD7B681B681A697B681B6822F490423D
:103E8C001A617B681B685A697B681B6822F02A02DE
:103E9C005A617B681B68DA687B681B6842F40052C5
:103EAC00DA607B6800225A647B68202283F8412008
:103EBC007B68202283F842207B6800225A6300230F
:103ECC0018460837BD4680BD80B58AB002AFF86091
:103EDC00B9603B601346FB8000237B61FB6893F861
:103EEC004130DBB2202B6DD1BB68002B02D0FB889C
:103EFC00002B01D1012366E0FB6800225A64FB68A9
:103F0C00212283F84120FEF785F87861FB68FA8856
:103F1C009A84FB68FA88DA84FB689B68B3F5805F47
:103F2C0008D1FB681B69002B04D10023FB61BB6823
:103F3C00BB6103E0BB68FB610023BB612AE03B680B
:103F4C0000937B6900228021F86800F014FB034683
:103F5C00002B01D0032336E0FB69002B0BD1BB698E
:103F6C001B881A46FB681B68C2F308025A60BB69BF
:103F7C000233BB6107E0FB691A78FB681B685A6067
:103F8C00FB690133FB61FB68DB8C9BB2013B9AB292
:103F9C00FB68DA84FB68DB8C9BB2002BCFD13B68CF
:103FAC0000937B6900224021F86800F0E4FA034694
:103FBC00002B01D0032306E0FB68202283F841206C
:103FCC00002300E0022318462037BD4680BD80B593
:103FDC0084B000AFF860B9601346FB80FB6893F8BF
:103FEC004230DBB2202B12D1BB68002B02D0FB88F5
:103FFC00002B01D101230BE0FB6800221A63FB8824
:10400C001A46B968F86800F024FB034600E0022366
:10401C0018461037BD4680BD80B5BAB000AF786089
:10402C007B681B681B68C7F8E4307B681B68DB681F
:10403C00C7F8E0307B681B685B69C7F8DC3000238D
:10404C00C7F8D8300023C7F8D430D7F8E43003F0E1
:10405C000F03C7F8D830D7F8D830002B0FD1D7F8CA
:10406C00E43003F02003002B09D0D7F8E03003F044
:10407C002003002B03D0786800F001FC5BE2D7F83A
:10408C00D830002B00F0DE80D7F8DC3003F00103D1
:10409C00002B06D1D7F8E03003F49073002B00F01E
:1040AC00D180D7F8E43003F00103002B0BD0D7F804
:1040BC00E03003F48073002B05D07B685B6C43F01D
:1040CC0001027B685A64D7F8E43003F00403002B38
:1040DC000BD0D7F8DC3003F00103002B05D07B6844
:1040EC005B6C43F002027B685A64D7F8E43003F04F
:1040FC000203002B0BD0D7F8DC3003F00103002BAC
:10410C0005D07B685B6C43F004027B685A64D7F87B
:10411C00E43003F00803002B11D0D7F8E03003F0A3
:10412C002003002B05D1D7F8DC3003F00103002B62
:10413C0005D07B685B6C43F008027B685A647B6833
:10414C005B6C002B00F0F281D7F8E43003F0200315
:10415C00002B08D0D7F8E03003F02003002B02D05E
:10416C00786800F08CFB7B681B685B6903F040038C
:10417C00002B14BF01230023DBB2C7F8D4307B68BB
:10418C005B6C03F00803002B03D1D7F8D430002B61
:10419C004FD0786800F096FA7B681B685B6903F077
:1041AC004003002B41D07B681B681433C7F89C304C
:1041BC00D7F89C3053E8003FC7F89830D7F89830C0
:1041CC0023F04003C7F8D0307B681B681433D7F852
:1041DC00D020C7F8A820C7F8A430D7F8A410D7F877
:1041EC00A82041E80023C7F8A030D7F8A030002B56
:1041FC00D9D17B68DB6B002B13D07B68DB6B7E4AE1
:10420C005A637B68DB6B1846FEF756F80346002BA7
:10421C0016D07B68DB6B5B6B7A68D26B1046984769
:10422C000EE0786800F093F90AE0786800F08FF9F6
:10423C0006E0786800F08BF97B6800225A6475E11F
:10424C0000BF73E17B681B6B012B40F04F81D7F8EB
:10425C00E43003F01003002B00F04881D7F8E03075
:10426C0003F01003002B00F041810023BB607B683E
:10427C001B681B68BB607B681B685B68BB60BB68AA
:10428C007B681B685B6903F04003002B00F0B68071
:10429C007B68DB6B1B685B68A7F8BE30B7F8BE3079
:1042AC00002B00F045817B689B8DB7F8BE209A42AD
:1042BC0080F03E817B68B7F8BE20DA857B68DB6BCB
:1042CC009B69202B00F088807B681B680C33C7F837
:1042DC008830D7F8883053E8003FC7F88430D7F8D7
:1042EC00843023F48073C7F8B8307B681B680C33B8
:1042FC00D7F8B820C7F89420C7F89030D7F89010AA
:10430C00D7F8942041E80023C7F88C30D7F88C30CC
:10431C00002BD9D17B681B6814337B677B6F53E808
:10432C00003F3B673B6F23F00103C7F8B4307B6859
:10433C001B681433D7F8B420C7F88020FB67F96FDB
:10434C00D7F8802041E80023BB67BB6F002BE1D17D
:10435C007B681B6814333B663B6E53E8003FFB6580
:10436C00FB6D23F04003C7F8B0307B681B68143337
:10437C00D7F8B020FA66BB66B96EFA6E41E8002336
:10438C007B667B6E002BE3D17B68202283F8422076
:10439C007B6800221A637B681B680C33FB64FB6C24
:1043AC0053E8003FBB64BB6C23F01003C7F8AC3080
:1043BC007B681B680C33D7F8AC20BA657B65796DCC
:1043CC00BA6D41E800233B653B6D002BE3D17B6864
:1043DC00DB6B1846FDF735FF7B6802225A637B685E
:1043EC009A8D7B68DB8D9BB2D31A9BB21946786889
:1043FC0000F0B6F89CE000BF954700087B689A8DEA
:10440C007B68DB8D9BB2D31AA7F8CE307B68DB8D33
:10441C009BB2002B00F08E80B7F8CE30002B00F052
:10442C0089807B681B680C33BB63BB6B53E8003F14
:10443C007B637B6B23F49073C7F8C8307B681B6875
:10444C000C33D7F8C8207A643B64396C7A6C41E839
:10445C000023FB63FB6B002BE3D17B681B681433DD
:10446C007B627B6A53E8003F3B623B6A23F00103AB
:10447C00C7F8C4307B681B681433D7F8C4203A6380
:10448C00FB62F96A3A6B41E80023BB62BB6A002B02
:10449C00E3D17B68202283F842207B6800221A63D8
:1044AC007B681B680C333B613B6953E8003FFB6046
:1044BC00FB6823F01003C7F8C0307B681B680C3313
:1044CC00D7F8C020FA61BB61B969FA6941E80023E9
:1044DC007B617B69002BE3D17B6802225A63B7F8BE
:1044EC00CE301946786800F03BF823E0D7F8E4307A
:1044FC0003F08003002B09D0D7F8E03003F08003E1
:10450C00002B03D0786800F053F914E0D7F8E430AE
:10451C0003F04003002B0ED0D7F8E03003F040033B
:10452C00002B08D0786800F092F904E000BF02E09C
:10453C0000BF00E000BFE837BD4680BD80B483B04B
:10454C0000AF786000BF0C37BD4680BC704780B4AC
:10455C0083B000AF786000BF0C37BD4680BC70479D
:10456C0080B483B000AF78600B467B8000BF0C3703
:10457C00BD4680BC704780B590B000AFF860B960A4
:10458C003B601346FB7150E0BB6CB3F1FF3F4CD06A
:10459C00BB6C002B07D0FDF73DFD02463B68D31AE0
:1045AC00BA6C9A4241D2FB681B680C33BB62BB6A83
:1045BC0053E8003F7B627B6A23F4D073FB63FB6898
:1045CC001B680C33FA6B7A633B63396B7A6B41E88B
:1045DC000023FB62FB6A002BE5D1FB681B681433DC
:1045EC007B617B6953E8003F3B613B6923F001032E
:1045FC00BB63FB681B681433BA6B3A62FB61F969E5
:10460C003A6A41E80023BB61BB69002BE5D1FB682A
:10461C00202283F84120FB68202283F84220FB688B
:10462C00002283F8402003230FE0FB681B681A6804
:10463C00BB681340BA689A420CBF01230023DBB25B
:10464C001A46FB799A429FD0002318464037BD4644
:10465C0080BD80B485B000AFF860B9601346FB80B4
:10466C00FB68BA689A62FB68FA889A85FB68FA88D4
:10467C00DA85FB6800225A64FB68222283F8422008
:10468C00FB681B69002B07D0FB681B68DA68FB68AA
:10469C001B6842F48072DA60FB681B685A69FB681D
:1046AC001B6842F001025A61FB681B68DA68FB6800
:1046BC001B6842F02002DA60002318461437BD460E
:1046CC0080BC704780B495B000AF78607B681B6885
:1046DC000C337B637B6B53E8003F3B633B6B23F4F6
:1046EC009073FB647B681B680C33FA6C3A64FB6355
:1046FC00F96B3A6C41E80023BB63BB6B002BE5D133
:10470C007B681B6814333B623B6A53E8003FFB61D8
:10471C00FB6923F00103BB647B681B681433BA6C20
:10472C00FA62BB62B96AFA6A41E800237B627B6A6F
:10473C00002BE5D17B681B6B012B19D17B681B68A7
:10474C000C33FB60FB6853E8003FBB60BB6823F095
:10475C0010037B647B681B680C337A6CBA617B61D9
:10476C007969BA6941E800233B613B69002BE5D1CB
:10477C007B68202283F842207B6800221A6300BFEA
:10478C005437BD4680BC704780B584B000AF7860AC
:10479C007B685B6AFB60FB680022DA85FB680022A1
:1047AC00DA84F868FFF7D3FE00BF1037BD4680BD32
:1047BC0080B485B000AF78607B6893F84130DBB291
:1047CC00212B3ED17B689B68B3F5805F14D17B684D
:1047DC001B69002B10D17B681B6AFB60FB681B8874
:1047EC001A467B681B68C2F308025A607B681B6A16
:1047FC009A1C7B681A6208E07B681B6A591C7A68F1
:10480C0011621A787B681B685A607B68DB8C9BB2E0
:10481C00013B9BB27A681946D184002B0FD17B687F
:10482C001B68DA687B681B6822F08002DA607B68A0
:10483C001B68DA687B681B6842F04002DA60002370
:10484C0000E0022318461437BD4680BC704780B583
:10485C0082B000AF78607B681B68DA687B681B6885
:10486C0022F04002DA607B68202283F841207868CD
:10487C00FFF764FE002318460837BD4680BD80B59F
:10488C008CB000AF78607B6893F84230DBB2222B9F
:10489C0040F0AE807B689B68B3F5805F17D17B6876
:1048AC001B69002B13D10023FB627B689B6ABB62E4
:1048BC007B681B685B689BB2C3F308039AB2BB6A44
:1048CC001A807B689B6A9A1C7B689A6226E07B68DC
:1048DC009B6AFB620023BB627B689B68B3F5805FBD
:1048EC0007D07B689B68002B0AD17B681B69002B67
:1048FC0006D17B681B685B68DAB2FB6A1A7008E049
:10490C007B681B685B68DBB203F07F03DAB2FB6A7F
:10491C001A707B689B6A5A1C7B689A627B68DB8D79
:10492C009BB2013B9BB27A681946D185002B5DD1B5
:10493C007B681B68DA687B681B6822F02002DA60EF
:10494C007B681B68DA687B681B6822F48072DA600B
:10495C007B681B685A697B681B6822F001025A61EC
:10496C007B68202283F842207B6800225A637B6894
:10497C001B6B012B35D17B6800221A637B681B688B
:10498C000C337B617B6953E8003F3B613B6923F04F
:10499C0010037B627B681B680C337A6A3A62FB619A
:1049AC00F9693A6A41E80023BB61BB69002BE5D188
:1049BC007B681B681B6803F01003102B0AD10023C3
:1049CC00FB607B681B681B68FB607B681B685B6813
:1049DC00FB60FB687B689B8D19467868FFF7C0FD10
:1049EC0002E07868FBF7B4FB002302E0002300E050
:1049FC00022318463037BD4680BD000080B584B018
:104A0C0000AF78607B681B681B6923F440517B689E
:104A1C00DA687B681B680A431A617B689A687B6852
:104A2C001B691A437B685B691343BB607B681B681B
:104A3C00DB6823F4B05323F00C037A681268B9686E
:104A4C000B43D3607B681B685B6923F440717B6804
:104A5C009A697B681B680A435A617B681B682C4AFD
:104A6C00934203D1FEF748FAF86002E0FEF730FA01
:104A7C00F860FA6813469B0013449A001A447B684A
:104A8C005B689B00B2FBF3F3224AA2FB03235B0996
:104A9C001901FA6813469B0013449A001A447B6868
:104AAC005B689B00B2FBF3F21A4BA3FB02035B099E
:104ABC00642000FB03F3D31A1B013233154AA2FB0B
:104ACC0003235B0903F0F0031944FA6813469B00B7
:104ADC0013449A001A447B685B689B00B2FBF3F2A8
:104AEC000C4BA3FB02035B09642000FB03F3D31AFA
:104AFC001B013233074AA2FB03235B0903F00F02AD
:104B0C007B681B680A449A6000BF1037BD4680BDA5
:104B1C00003801401F85EB51014B1868704700BFEE
:104B2C007400002070B500260C4D0D4C641BA410B5
:104B3C00A64209D100F05CFC00260A4D0A4C641B0D
:104B4C00A410A64205D170BD55F8043B9847013618
:104B5C00EEE755F8043B98470136F2E70456000897
:104B6C000456000804560008085600080346024480
:104B7C00934200D1704703F8011BF9E70EB46FF0B4
:104B8C00004100B59CB01DAB0290069007910491BA
:104B9C000848094953F8042B0591006802A90193B0
:104BAC0000F068F80022029B1A701CB05DF804EB50
:104BBC0003B07047740000200802FFFF2DE9F04796
:104BCC008E6882469E420C4690461F4638D88A898B
:104BDC0012F4906F32D0256809690133A5EB0109F5
:104BEC0065694B4405EB450505EBD5756D109D428C
:104BFC0038BF1D46530531D5294600F053FB0646F8
:104C0C0050B90C234FF0FF30CAF80030A38943F0A1
:104C1C004003A381BDE8F0874A46216900F0CEFA33
:104C2C00A38923F4906343F08003A38126614E444F
:104C3C0026603E466561A5EB0905A560BE4200D91C
:104C4C003E4632464146206800F0C6FAA368226808
:104C5C009B1B32440020A3602260DBE72A4600F055
:104C6C007BFB06460028E1D15046216900F0CEFAC4
:104C7C00C7E700002DE9F04F98468B8907461B06C5
:104C8C000D4614469DB00ED50B6963B9402100F05A
:104C9C0009FB2860286120B90C233B604FF0FF30E2
:104CAC00D1E040236B610023099320238DF8293038
:104CBC0030234FF00109CDF80C80DFF8A4818DF87A
:104CCC002A3023469A4613F8012B0AB1252AF9D12A
:104CDC00BAEB040B0BD05B46224629463846FFF74D
:104CEC006DFF013000F0AA80099A5A4409929AF893
:104CFC000030002B00F0A28000234FF0FF32CDE9F2
:104D0C0005230AF1010A049307938DF853301A9383
:104D1C005446052214F8011B514800F041FA049A3C
:104D2C00D8B9D00644BF20238DF85330110744BFA7
:104D3C002B238DF853309AF800302A2B15D054467B
:104D4C0000204FF00A0C079A214611F8013B303B2A
:104D5C00092B4ED9B0B1079214E0A0EB080309FA65
:104D6C0003F31343A2460493D2E7039B191D1B685C
:104D7C000391002BBBBF5B4242F0020207930793E7
:104D8C00B8BF049223782E2B0CD163782A2B35D103
:104D9C00039B02341A1D1B680392002BB8BF4FF003
:104DAC00FF330593DFF8C8A003225046217800F0AA
:104DBC00F7F940B14023A0EB0A0003FA00F0049B82
:104DCC0001340343049314F8011B062225488DF883
:104DDC00281000F0E5F9002838D0234B1BBB039BAF
:104DEC00073323F0070308330393099B33440993D8
:104DFC0067E70C4601200CFB0232A5E700234FF0BD
:104E0C000A0C194601340593204610F8012B303A50
:104E1C00092A03D9002BC5D00591C3E70446012309
:104E2C000CFB0121F0E703AB00932A4638460F4BED
:104E3C0004A9AFF30080421C0646D6D1AB895B06B1
:104E4C003FF52CAF09981DB0BDE8F08F03AB009374
:104E5C002A463846054B04A900F07CF8EBE700BF66
:104E6C00CE550008D855000800000000C94B0008BA
:104E7C00D45500082DE9F047164699468A680B6907
:104E8C0007469342B8BF1346336091F843200C4653
:104E9C00DDF820800AB1013333602368990642BFE4
:104EAC00336802333360256815F0060506D104F12A
:104EBC00190AE36832689B1AAB4228DC94F8432049
:104ECC00131E226818BF012392062DD4494638467A
:104EDC0004F14302C047013020D02368E56803F099
:104EEC000603042B18BF002532684FF00006A36898
:104EFC0008BFAD1A226908BF25EAE5759342C4BF05
:104F0C009B1AED181A34B5421AD1002008E001237F
:104F1C00524649463846C047013003D14FF0FF3066
:104F2C00BDE8F0870135C4E73020E11881F8430073
:104F3C005A1C94F845102244023382F84310C5E7FA
:104F4C000123224649463846C0470130E6D0013697
:104F5C00D9E700002DE9FF470C46277E9146782FB4
:104F6C0080469A460C9904F1430207D8622F0AD85E
:104F7C00002F00F0D980582F00F0A48004F14206D5
:104F8C0084F842703AE0A7F16303152BF6D801A020
:104F9C0050F823F0F94F00080D500008894F000815
:104FAC00894F0008894F0008894F00080D500008F0
:104FBC00894F0008894F0008894F0008894F000865
:104FCC001B5100083D500008FD500008894F000897
:104FDC00894F00083D510008894F00083D500008DA
:104FEC00894F0008894F0008055100080B6804F12F
:104FFC0042061A1D1B680A6084F842300123A4E0A3
:10500C00256808682E0600F104030AD505680B60B4
:10501C00002D03DA2D236D4284F843300A235E48B9
:10502C0019E015F0400F05680B6018BF2DB2EFE7C3
:10503C000B682568181D0860280601D51D6802E05C
:10504C006906FBD51D886F2F0CBF08230A23524815
:10505C00002184F843106668002EA8BF2168A66062
:10506C00A4BF21F0040121600DB9002E4DD01646CD
:10507C00B5FBF3F103FB1157C75D06F8017D2F4615
:10508C00BB420D46F4D9082B0BD12368DF0708D59A
:10509C00236961689942DEBF302306F8013C06F1B2
:1050AC00FF36921B22614B4621464046CDF800A0AC
:1050BC0003AAFFF7DFFE01304CD14FF0FF3004B0F4
:1050CC00BDE8F087344884F845700E68236856F8BC
:1050DC00045B1F060E6014D5D90744BF43F02003B0
:1050EC0023601DB9236823F0200323601023AFE74E
:1050FC00236843F0200323607823284884F8453044
:10510C00E3E75E0648BFADB2E6E71646BBE70B68C1
:10511C0026681D1D60690D6035061B6801D5186079
:10512C0002E07106FBD51880002316462361BAE70E
:10513C000B681A1D0A601E6800213046626800F078
:10514C002FF808B1801B606063682361002384F82A
:10515C004330A8E73246494640462369D0470130E0
:10516C00ABD023689B0713D4E068039B9842B8BF6D
:10517C001846A4E70123324649464046D047013041
:10518C009BD00135E36803995B1AAB42F2DCEBE789
:10519C00002504F11906F5E7DF550008F055000865
:1051AC00034610B5C9B202449342184601D10020FF
:1051BC0003E0047801338C42F6D110BD0A449142CD
:1051CC0000F1FF3300D1704710B511F8014B91423B
:1051DC0003F8014FF9D110BD884210B501EB020460
:1051EC0002D98442234607D8431EA14208D011F8A5
:1051FC00012B03F8012FF8E7014602448A4200D143
:10520C0010BD13F8014D02F8014DF7E738B505460E
:10521C00002943D051F8043C0C1F002BB8BFE418F4
:10522C0000F0D0F81E4A1368104633B9636014605E
:10523C002846BDE8384000F0CBB8A3420AD9216813
:10524C006218934201BF1A685B685218226063604F
:10525C000460EDE71A465B680BB1A342FAD91168FA
:10526C005018A0420BD120680144501883421160A1
:10527C00DED118685B68014411605360D8E702D92D
:10528C000C232B60D4E7206821188B4201BF1968CE
:10529C005B680918216063605460C9E738BD00BFC2
:1052AC0090040020F8B5CD1C25F0030508350C2D15
:1052BC0038BF0C25002D064601DBA94203D90C236F
:1052CC0033600020F8BD00F07DF821490A681446CF
:1052DC009CB9204F3B6823B92146304600F062F858
:1052EC0038602946304600F05DF8431C23D10C236E
:1052FC003046336000F06CF8E3E723685B1B17D48F
:10530C000B2B03D923601C44256004E06368A24284
:10531C000CBF0B605360304600F05AF804F10B00E0
:10532C00231D20F00700C21ACCD01B1AA350C9E7CA
:10533C0022466468CCE7C41C24F00304A042E3D0EA
:10534C00211A304600F02EF80130DDD1CFE700BF36
:10535C009004002094040020F8B5074614460E462D
:10536C0021B91146BDE8F840FFF79CBF22B9FFF701
:10537C004DFF25462846F8BD00F030F8A0420FD26C
:10538C0021463846FFF78EFF05460028F2D03146FD
:10539C002246FFF713FF31463846FFF737FFE9E7A0
:1053AC003546E7E738B50023054D044608462B6023
:1053BC00FCF7D0F8431C02D12B6803B1236038BD35
:1053CC0078050020014800F011B800BF80050020CE
:1053DC00014800F00CB800BF8005002051F8043CD7
:1053EC00181F002BBCBF0B58C01870477047704774
:1053FC00F8B500BFF8BC08BC9E467047F8B500BFB6
:08540C00F8BC08BC9E46704785
:1054140021526F6164313D25643B20526F616432D7
:105424003D2564230D0A0000214F6C642076616CD5
:1054340075653D25643B204E65772076616C756506
:105444003D2564230D0A00004155544F4D415449F4
:105454004F4E204D4F44450042757A7A65720000E4
:105464004155544F4D4154494F4E204D4F44450DE5
:105474000A0000004D414E55414C204D4F44450D0E
:105484000A00000054554E494E47204D4F44453ABA
:105494002053455420524544204C45440D0A0000F5
:1054A4004155544F4D4154494F4E204D4F44450AA8
:1054B4000000000054554E494E47204D4F44453A94
:1054C400205345542059454C4C4F57204C45440DCE
:1054D4000A00000053617665642052656420746993
:1054E4006D653A200000000054554E494E47204D4A
:1054F4004F44453A2053455420475245454E204C8D
:1055040045440D0A00000000536176656420596526
:105514006C6C6F772074696D653A2000466972730C
:1055240074207374617475733A205245444752452C
:10553400454E0D0A000000004669727374207374AE
:10554400617475733A2052454459454C4C4F570D7C
:105554000A00000046697273742073746174757371
:105564003A2059454C4C4F575245440D0A0000000F
:105574004669727374207374617475733A20475268
:1055840045454E5245440D0A0000000053617665BE
:105594006420477265656E2074696D653A20000069
:1055A40000000000000000000102030406070809CF
:1055B40000000000010203040203040506070809B1
:1055C4000A0B0C0D0E0F10100102232D302B20009E
:1055D400686C4C00656667454647003031323334A9
:1055E4003536373839414243444546003031323349
:1055F400343536373839616263646566000000000B
:045604003101000868
:045608000D01000888
:10560C000100020010000100010000000100000078
:10561C00010000000100000001000000010000007A
:10562C00010000000100000001000000010000006A
:10563C00010000000100000001000000010000005A
:10564C000100000001000000C8000000C8000000BC
:10565C00C8000000C80000000500000003000000A6
:10566C0002000000E80300000024F4001000000019
:10567C000100000078000020000000000000000085
:10568C00000000000000000000000000000000000E
:10569C0000000000000000000000000000000000FE
:1056AC0000000000000000000000000000000000EE
:1056BC0000000000000000000000000000000000DE
:1056CC0000000000000000000000000000000000CE
:0856DC000000000000000000C6
:0400000508001F25AB
:00000001FF
